:1001520041542B43495053454E443D302C320D0AF5
:10016200006F6B0D0A0041542B43574D4F44453DE0
:10017200320D0A0041542B43575341503D65737071
:10018200383236362C303132333435363738392C32
:1001920031312C340D0A0041542B5253540D0A00B4
:1001A20041542B4349504D55583D310D0A0041549D
:1001B2002B4349505345525645523D312C38303924
:0401C200300D0A00F2
:03000300011300E6
:10002600E5126439700FC200F5141202C0C200E472
:10003600F5141202E1E51264317010D2008508143D
:100046001202C0C2008508141202E1E51264327081
:1000560010C2008508141202C0D2008508141202CC
:10006600E1E51264337010D2008508141202C0C292
:1000760000E4F5141202E1E5126434700FD200F5C3
:10008600141202C0C2008508141202E1AF127E00EB
:10009600EF6435701274142508F508C394647480EF
:1000A60094804003750864EF64364E701274EC2534
:1000B60008F508D394287480948050037508282284
:1001C6007F887E131202A012000E1203211202046F
:1001D60075083CE512646370FA7BFF7A0179521266
:1001E60002707FF47E011202A07BFF7A017963120E
:0E01F60002707FF47E011202A012002680FB30
:1003210053890F438920758BFD758DFDE4F5B8D296
:0C0331008ED29CC29FD29ED2AFD2AC22D2
:10000E005389F0438901758CFF758A7ED2AFD2A9D0
:03001E00D28C225F
:0E035600C2ACC2998F993099FDC299D2AC22E7
:100270008B148A158916AB14AA15A91612033D60B2
:100280001A0516E5167002051514F912033DFF1242
:0C02900003567F057E001202A080DB22D6
:04029C007FE87E0376
:1002A000E4FDFCC3ED9FEC9E5015E4FBFA0BBB0094
:0F02B000010AEB647B4A70F50DBD00010C80E480
:0102BF00221C
:1002040012029C7BFF7A01796812027012029C7BB5
:10021400FF7A01797612027012029C7BFF7A0179CF
:100224009912027012029C7BFF7A0179A212027069
:0C02340012029C7BFF7A0179B00202707C
:0300230002024096
:10024000C0E0C0D075D000C00030981DC2987409BD
:100250002513F8A699E509B42B040513800375133B
:1002600000E513640A7002F513D000D0D0D0E0325C
:03000600011700DF
:1002C00030000FD290E517D395145003C29122D27B
:1002D0009122D291E517D395145003C29022D29067
:0102E00022FB
:1002E10030000FD292E517D395145003C29322D256
:1002F1009322D293E517D395145003C29222D2923E
:0103010022D9
:03000B00020302EB
:10030200C0E0C0D0758CFF758A7E0517C3E51794CF
:0F03120064748094804003751700D0D0D0E0321F
:030000000200C635
:0C00C600787FE4F6D8FD75812002010D62
:10033D00BB010689828A83E0225002E722BBFE02BE
:09034D00E32289828A83E49322F1
:1000D2000201C6E493A3F8E493A34003F68001F27D
:1000E20008DFF48029E493A3F85407240CC8C3332F
:1000F200C4540F4420C8834004F456800146F6DFFE
:10010200E4800B0102040810204080900003E47E8A
:10011200019360BCA3FF543F30E509541FFEE493F2
:10012200A360010ECF54C025E060A840B8E493A3B9
:10013200FAE493A3F8E493A3C8C582C8CAC583CAE4
:10014200F0A3C8C582C8CAC583CADFE9DEE780BE9C
:0100090000F6
:00000001FF
